{
  "_format": "hh-sol-artifact-1",
  "contractName": "NFT",
  "sourceName": "contracts/NFT.sol",
  "abi": [
    {
      "inputs": [
        {
          "internalType": "address",
          "name": "_rolesContractAddress",
          "type": "address"
        }
      ],
      "stateMutability": "nonpayable",
      "type": "constructor"
    },
    {
      "anonymous": false,
      "inputs": [
        {
          "indexed": true,
          "internalType": "address",
          "name": "owner",
          "type": "address"
        },
        {
          "indexed": true,
          "internalType": "address",
          "name": "approved",
          "type": "address"
        },
        {
          "indexed": true,
          "internalType": "uint256",
          "name": "tokenId",
          "type": "uint256"
        }
      ],
      "name": "Approval",
      "type": "event"
    },
    {
      "anonymous": false,
      "inputs": [
        {
          "indexed": true,
          "internalType": "address",
          "name": "owner",
          "type": "address"
        },
        {
          "indexed": true,
          "internalType": "address",
          "name": "operator",
          "type": "address"
        },
        {
          "indexed": false,
          "internalType": "bool",
          "name": "approved",
          "type": "bool"
        }
      ],
      "name": "ApprovalForAll",
      "type": "event"
    },
    {
      "anonymous": false,
      "inputs": [
        {
          "indexed": false,
          "internalType": "uint256",
          "name": "_fromTokenId",
          "type": "uint256"
        },
        {
          "indexed": false,
          "internalType": "uint256",
          "name": "_toTokenId",
          "type": "uint256"
        }
      ],
      "name": "BatchMetadataUpdate",
      "type": "event"
    },
    {
      "anonymous": false,
      "inputs": [
        {
          "indexed": false,
          "internalType": "uint256",
          "name": "_tokenId",
          "type": "uint256"
        }
      ],
      "name": "MetadataUpdate",
      "type": "event"
    },
    {
      "anonymous": false,
      "inputs": [
        {
          "indexed": false,
          "internalType": "uint256",
          "name": "id",
          "type": "uint256"
        },
        {
          "indexed": false,
          "internalType": "string",
          "name": "tokenURI",
          "type": "string"
        },
        {
          "indexed": false,
          "internalType": "uint256",
          "name": "mintedAt",
          "type": "uint256"
        },
        {
          "indexed": false,
          "internalType": "address",
          "name": "mintedBy",
          "type": "address"
        }
      ],
      "name": "Mint",
      "type": "event"
    },
    {
      "anonymous": false,
      "inputs": [
        {
          "indexed": false,
          "internalType": "address",
          "name": "seller",
          "type": "address"
        },
        {
          "indexed": false,
          "internalType": "address",
          "name": "to",
          "type": "address"
        },
        {
          "indexed": false,
          "internalType": "uint256",
          "name": "id",
          "type": "uint256"
        },
        {
          "indexed": false,
          "internalType": "uint256",
          "name": "mintedAt",
          "type": "uint256"
        }
      ],
      "name": "Sell",
      "type": "event"
    },
    {
      "anonymous": false,
      "inputs": [
        {
          "indexed": true,
          "internalType": "address",
          "name": "from",
          "type": "address"
        },
        {
          "indexed": true,
          "internalType": "address",
          "name": "to",
          "type": "address"
        },
        {
          "indexed": true,
          "internalType": "uint256",
          "name": "tokenId",
          "type": "uint256"
        }
      ],
      "name": "Transfer",
      "type": "event"
    },
    {
      "inputs": [
        {
          "internalType": "address",
          "name": "to",
          "type": "address"
        },
        {
          "internalType": "uint256",
          "name": "tokenId",
          "type": "uint256"
        }
      ],
      "name": "approve",
      "outputs": [],
      "stateMutability": "nonpayable",
      "type": "function"
    },
    {
      "inputs": [
        {
          "internalType": "address",
          "name": "owner",
          "type": "address"
        }
      ],
      "name": "balanceOf",
      "outputs": [
        {
          "internalType": "uint256",
          "name": "",
          "type": "uint256"
        }
      ],
      "stateMutability": "view",
      "type": "function"
    },
    {
      "inputs": [
        {
          "internalType": "uint256",
          "name": "tokenId",
          "type": "uint256"
        }
      ],
      "name": "getApproved",
      "outputs": [
        {
          "internalType": "address",
          "name": "",
          "type": "address"
        }
      ],
      "stateMutability": "view",
      "type": "function"
    },
    {
      "inputs": [],
      "name": "getBalance",
      "outputs": [
        {
          "internalType": "uint256",
          "name": "",
          "type": "uint256"
        }
      ],
      "stateMutability": "view",
      "type": "function"
    },
    {
      "inputs": [
        {
          "internalType": "uint256",
          "name": "_tokenId",
          "type": "uint256"
        }
      ],
      "name": "getTokenById",
      "outputs": [
        {
          "internalType": "uint256",
          "name": "",
          "type": "uint256"
        },
        {
          "internalType": "string",
          "name": "",
          "type": "string"
        },
        {
          "internalType": "uint256",
          "name": "",
          "type": "uint256"
        },
        {
          "internalType": "bool",
          "name": "",
          "type": "bool"
        }
      ],
      "stateMutability": "view",
      "type": "function"
    },
    {
      "inputs": [
        {
          "internalType": "address",
          "name": "owner",
          "type": "address"
        },
        {
          "internalType": "address",
          "name": "operator",
          "type": "address"
        }
      ],
      "name": "isApprovedForAll",
      "outputs": [
        {
          "internalType": "bool",
          "name": "",
          "type": "bool"
        }
      ],
      "stateMutability": "view",
      "type": "function"
    },
    {
      "inputs": [
        {
          "internalType": "uint256",
          "name": "_tokenId",
          "type": "uint256"
        }
      ],
      "name": "isValidToken",
      "outputs": [
        {
          "internalType": "bool",
          "name": "",
          "type": "bool"
        }
      ],
      "stateMutability": "view",
      "type": "function"
    },
    {
      "inputs": [],
      "name": "listMyTokens",
      "outputs": [
        {
          "internalType": "uint256[]",
          "name": "",
          "type": "uint256[]"
        }
      ],
      "stateMutability": "view",
      "type": "function"
    },
    {
      "inputs": [
        {
          "internalType": "string",
          "name": "_uri",
          "type": "string"
        }
      ],
      "name": "mint",
      "outputs": [],
      "stateMutability": "nonpayable",
      "type": "function"
    },
    {
      "inputs": [],
      "name": "name",
      "outputs": [
        {
          "internalType": "string",
          "name": "",
          "type": "string"
        }
      ],
      "stateMutability": "view",
      "type": "function"
    },
    {
      "inputs": [
        {
          "internalType": "uint256",
          "name": "tokenId",
          "type": "uint256"
        }
      ],
      "name": "ownerOf",
      "outputs": [
        {
          "internalType": "address",
          "name": "",
          "type": "address"
        }
      ],
      "stateMutability": "view",
      "type": "function"
    },
    {
      "inputs": [
        {
          "internalType": "address",
          "name": "from",
          "type": "address"
        },
        {
          "internalType": "address",
          "name": "to",
          "type": "address"
        },
        {
          "internalType": "uint256",
          "name": "tokenId",
          "type": "uint256"
        }
      ],
      "name": "safeTransferFrom",
      "outputs": [],
      "stateMutability": "nonpayable",
      "type": "function"
    },
    {
      "inputs": [
        {
          "internalType": "address",
          "name": "from",
          "type": "address"
        },
        {
          "internalType": "address",
          "name": "to",
          "type": "address"
        },
        {
          "internalType": "uint256",
          "name": "tokenId",
          "type": "uint256"
        },
        {
          "internalType": "bytes",
          "name": "data",
          "type": "bytes"
        }
      ],
      "name": "safeTransferFrom",
      "outputs": [],
      "stateMutability": "nonpayable",
      "type": "function"
    },
    {
      "inputs": [
        {
          "internalType": "address",
          "name": "_to",
          "type": "address"
        },
        {
          "internalType": "uint256",
          "name": "_tokenId",
          "type": "uint256"
        }
      ],
      "name": "sell",
      "outputs": [
        {
          "internalType": "uint256",
          "name": "",
          "type": "uint256"
        }
      ],
      "stateMutability": "nonpayable",
      "type": "function"
    },
    {
      "inputs": [
        {
          "internalType": "address",
          "name": "operator",
          "type": "address"
        },
        {
          "internalType": "bool",
          "name": "approved",
          "type": "bool"
        }
      ],
      "name": "setApprovalForAll",
      "outputs": [],
      "stateMutability": "nonpayable",
      "type": "function"
    },
    {
      "inputs": [
        {
          "internalType": "bytes4",
          "name": "interfaceId",
          "type": "bytes4"
        }
      ],
      "name": "supportsInterface",
      "outputs": [
        {
          "internalType": "bool",
          "name": "",
          "type": "bool"
        }
      ],
      "stateMutability": "view",
      "type": "function"
    },
    {
      "inputs": [],
      "name": "symbol",
      "outputs": [
        {
          "internalType": "string",
          "name": "",
          "type": "string"
        }
      ],
      "stateMutability": "view",
      "type": "function"
    },
    {
      "inputs": [
        {
          "internalType": "uint256",
          "name": "index",
          "type": "uint256"
        }
      ],
      "name": "tokenByIndex",
      "outputs": [
        {
          "internalType": "uint256",
          "name": "",
          "type": "uint256"
        }
      ],
      "stateMutability": "view",
      "type": "function"
    },
    {
      "inputs": [
        {
          "internalType": "uint256",
          "name": "",
          "type": "uint256"
        }
      ],
      "name": "tokenIndexIsValid",
      "outputs": [
        {
          "internalType": "bool",
          "name": "",
          "type": "bool"
        }
      ],
      "stateMutability": "view",
      "type": "function"
    },
    {
      "inputs": [
        {
          "internalType": "address",
          "name": "owner",
          "type": "address"
        },
        {
          "internalType": "uint256",
          "name": "index",
          "type": "uint256"
        }
      ],
      "name": "tokenOfOwnerByIndex",
      "outputs": [
        {
          "internalType": "uint256",
          "name": "",
          "type": "uint256"
        }
      ],
      "stateMutability": "view",
      "type": "function"
    },
    {
      "inputs": [
        {
          "internalType": "uint256",
          "name": "tokenId",
          "type": "uint256"
        }
      ],
      "name": "tokenURI",
      "outputs": [
        {
          "internalType": "string",
          "name": "",
          "type": "string"
        }
      ],
      "stateMutability": "view",
      "type": "function"
    },
    {
      "inputs": [],
      "name": "totalSupply",
      "outputs": [
        {
          "internalType": "uint256",
          "name": "",
          "type": "uint256"
        }
      ],
      "stateMutability": "view",
      "type": "function"
    },
    {
      "inputs": [
        {
          "internalType": "address",
          "name": "_to",
          "type": "address"
        },
        {
          "internalType": "uint256",
          "name": "_tokenId",
          "type": "uint256"
        }
      ],
      "name": "transfer",
      "outputs": [
        {
          "internalType": "uint256",
          "name": "",
          "type": "uint256"
        }
      ],
      "stateMutability": "nonpayable",
      "type": "function"
    },
    {
      "inputs": [
        {
          "internalType": "address",
          "name": "from",
          "type": "address"
        },
        {
          "internalType": "address",
          "name": "to",
          "type": "address"
        },
        {
          "internalType": "uint256",
          "name": "tokenId",
          "type": "uint256"
        }
      ],
      "name": "transferFrom",
      "outputs": [],
      "stateMutability": "nonpayable",
      "type": "function"
    }
  ],
  "bytecode": "0x60806040523480156200001157600080fd5b506040516200504d3803806200504d83398181016040528101906200003791906200017b565b6040518060400160405280600881526020017f426f74746c6546690000000000000000000000000000000000000000000000008152506040518060400160405280600381526020017f42544600000000000000000000000000000000000000000000000000000000008152508160009081620000b4919062000427565b508060019081620000c6919062000427565b50505080600b60006101000a81548173ffffffffffffffffffffffffffffffffffffffff021916908373ffffffffffffffffffffffffffffffffffffffff160217905550506200050e565b600080fd5b600073ffffffffffffffffffffffffffffffffffffffff82169050919050565b6000620001438262000116565b9050919050565b620001558162000136565b81146200016157600080fd5b50565b60008151905062000175816200014a565b92915050565b60006020828403121562000194576200019362000111565b5b6000620001a48482850162000164565b91505092915050565b600081519050919050565b7f4e487b7100000000000000000000000000000000000000000000000000000000600052604160045260246000fd5b7f4e487b7100000000000000000000000000000000000000000000000000000000600052602260045260246000fd5b600060028204905060018216806200022f57607f821691505b602082108103620002455762000244620001e7565b5b50919050565b60008190508160005260206000209050919050565b60006020601f8301049050919050565b600082821b905092915050565b600060088302620002af7fffffffffffffffffffffffffffffffffffffffffffffffffffffffffffffffff8262000270565b620002bb868362000270565b95508019841693508086168417925050509392505050565b6000819050919050565b6000819050919050565b60006200030862000302620002fc84620002d3565b620002dd565b620002d3565b9050919050565b6000819050919050565b6200032483620002e7565b6200033c62000333826200030f565b8484546200027d565b825550505050565b600090565b6200035362000344565b6200036081848462000319565b505050565b5b8181101562000388576200037c60008262000349565b60018101905062000366565b5050565b601f821115620003d757620003a1816200024b565b620003ac8462000260565b81016020851015620003bc578190505b620003d4620003cb8562000260565b83018262000365565b50505b505050565b600082821c905092915050565b6000620003fc60001984600802620003dc565b1980831691505092915050565b6000620004178383620003e9565b9150826002028217905092915050565b6200043282620001ad565b67ffffffffffffffff8111156200044e576200044d620001b8565b5b6200045a825462000216565b620004678282856200038c565b600060209050601f8311600181146200049f57600084156200048a578287015190505b62000496858262000409565b86555062000506565b601f198416620004af866200024b565b60005b82811015620004d957848901518255600182019150602085019450602081019050620004b2565b86831015620004f95784890151620004f5601f891682620003e9565b8355505b6001600288020188555050505b505050505050565b614b2f806200051e6000396000f3fe608060405234801561001057600080fd5b50600436106101585760003560e01c80636c197ff5116100c3578063a9059cbb1161007c578063a9059cbb14610416578063b88d4fde14610446578063c87b56dd14610462578063d7f6609514610492578063d85d3d27146104c2578063e985e9c5146104de57610158565b80636c197ff51461031957806370a08231146103495780637bdc60d914610379578063860fc78b146103ac57806395d89b41146103dc578063a22cb465146103fa57610158565b806323b872dd1161011557806323b872dd146102335780632f745c591461024f5780633c36c3ea1461027f57806342842e0e1461029d5780634f6ccce7146102b95780636352211e146102e957610158565b806301ffc9a71461015d57806306fdde031461018d578063081812fc146101ab578063095ea7b3146101db57806312065fe0146101f757806318160ddd14610215575b600080fd5b61017760048036038101906101729190613192565b61050e565b60405161018491906131da565b60405180910390f35b610195610520565b6040516101a29190613285565b60405180910390f35b6101c560048036038101906101c091906132dd565b6105b2565b6040516101d2919061334b565b60405180910390f35b6101f560048036038101906101f09190613392565b6105f8565b005b6101ff61070f565b60405161020c91906133e1565b60405180910390f35b61021d61071f565b60405161022a91906133e1565b60405180910390f35b61024d600480360381019061024891906133fc565b61072c565b005b61026960048036038101906102649190613392565b61078c565b60405161027691906133e1565b60405180910390f35b610287610831565b604051610294919061350d565b60405180910390f35b6102b760048036038101906102b291906133fc565b6109a2565b005b6102d360048036038101906102ce91906132dd565b6109c2565b6040516102e091906133e1565b60405180910390f35b61030360048036038101906102fe91906132dd565b610a33565b604051610310919061334b565b60405180910390f35b610333600480360381019061032e9190613392565b610ab9565b60405161034091906133e1565b60405180910390f35b610363600480360381019061035e919061352f565b610f42565b60405161037091906133e1565b60405180910390f35b610393600480360381019061038e91906132dd565b610ff9565b6040516103a3949392919061355c565b60405180910390f35b6103c660048036038101906103c191906132dd565b611115565b6040516103d391906131da565b60405180910390f35b6103e461113f565b6040516103f19190613285565b60405180910390f35b610414600480360381019061040f91906135d4565b6111d1565b005b610430600480360381019061042b9190613392565b6111e7565b60405161043d91906133e1565b60405180910390f35b610460600480360381019061045b9190613749565b6114d2565b005b61047c600480360381019061047791906132dd565b611534565b6040516104899190613285565b60405180910390f35b6104ac60048036038101906104a791906132dd565b611546565b6040516104b991906131da565b60405180910390f35b6104dc60048036038101906104d7919061386d565b611566565b005b6104f860048036038101906104f391906138b6565b611882565b60405161050591906131da565b60405180910390f35b600061051982611916565b9050919050565b60606000805461052f90613925565b80601f016020809104026020016040519081016040528092919081815260200182805461055b90613925565b80156105a85780601f1061057d576101008083540402835291602001916105a8565b820191906000526020600020905b81548152906001019060200180831161058b57829003601f168201915b5050505050905090565b60006105bd82611977565b6004600083815260200190815260200160002060009054906101000a900473ffffffffffffffffffffffffffffffffffffffff169050919050565b600061060382610a33565b90508073ffffffffffffffffffffffffffffffffffffffff168373ffffffffffffffffffffffffffffffffffffffff1603610673576040517f08c379a000000000000000000000000000000000000000000000000000000000815260040161066a906139c8565b60405180910390fd5b8073ffffffffffffffffffffffffffffffffffffffff166106926119c2565b73ffffffffffffffffffffffffffffffffffffffff1614806106c157506106c0816106bb6119c2565b611882565b5b610700576040517f08c379a00000000000000000000000000000000000000000000000000000000081526004016106f790613a5a565b60405180910390fd5b61070a83836119ca565b505050565b600061071a33610f42565b905090565b6000600880549050905090565b61073d6107376119c2565b82611a83565b61077c576040517f08c379a000000000000000000000000000000000000000000000000000000000815260040161077390613aec565b60405180910390fd5b610787838383611b18565b505050565b600061079783610f42565b82106107d8576040517f08c379a00000000000000000000000000000000000000000000000000000000081526004016107cf90613b7e565b60405180910390fd5b600660008473ffffffffffffffffffffffffffffffffffffffff1673ffffffffffffffffffffffffffffffffffffffff168152602001908152602001600020600083815260200190815260200160002054905092915050565b6060600061087c600e60003373ffffffffffffffffffffffffffffffffffffffff1673ffffffffffffffffffffffffffffffffffffffff168152602001908152602001600020611e11565b67ffffffffffffffff8111156108955761089461361e565b5b6040519080825280602002602001820160405280156108c35781602001602082028036833780820191505090505b50905060005b610910600e60003373ffffffffffffffffffffffffffffffffffffffff1673ffffffffffffffffffffffffffffffffffffffff168152602001908152602001600020611e11565b81101561099a5761096881600e60003373ffffffffffffffffffffffffffffffffffffffff1673ffffffffffffffffffffffffffffffffffffffff168152602001908152602001600020611e2690919063ffffffff16565b82828151811061097b5761097a613b9e565b5b602002602001018181525050808061099290613bfc565b9150506108c9565b508091505090565b6109bd838383604051806020016040528060008152506114d2565b505050565b60006109cc61071f565b8210610a0d576040517f08c379a0000000000000000000000000000000000000000000000000000000008152600401610a0490613cb6565b60405180910390fd5b60088281548110610a2157610a20613b9e565b5b90600052602060002001549050919050565b600080610a3f83611e40565b9050600073ffffffffffffffffffffffffffffffffffffffff168173ffffffffffffffffffffffffffffffffffffffff1603610ab0576040517f08c379a0000000000000000000000000000000000000000000000000000000008152600401610aa790613d22565b60405180910390fd5b80915050919050565b6000600b60009054906101000a900473ffffffffffffffffffffffffffffffffffffffff1673ffffffffffffffffffffffffffffffffffffffff166391d14854600b60009054906101000a900473ffffffffffffffffffffffffffffffffffffffff1673ffffffffffffffffffffffffffffffffffffffff1663a29508fc6040518163ffffffff1660e01b8152600401602060405180830381865afa158015610b66573d6000803e3d6000fd5b505050506040513d601f19601f82011682018060405250810190610b8a9190613d78565b336040518363ffffffff1660e01b8152600401610ba8929190613db4565b602060405180830381865afa158015610bc5573d6000803e3d6000fd5b505050506040513d601f19601f82011682018060405250810190610be99190613df2565b80610d1e5750600b60009054906101000a900473ffffffffffffffffffffffffffffffffffffffff1673ffffffffffffffffffffffffffffffffffffffff166391d14854600b60009054906101000a900473ffffffffffffffffffffffffffffffffffffffff1673ffffffffffffffffffffffffffffffffffffffff1663926a694d6040518163ffffffff1660e01b8152600401602060405180830381865afa158015610c9a573d6000803e3d6000fd5b505050506040513d601f19601f82011682018060405250810190610cbe9190613d78565b336040518363ffffffff1660e01b8152600401610cdc929190613db4565b602060405180830381865afa158015610cf9573d6000803e3d6000fd5b505050506040513d601f19601f82011682018060405250810190610d1d9190613df2565b5b610d5d576040517f08c379a0000000000000000000000000000000000000000000000000000000008152600401610d5490613e91565b60405180910390fd5b6000610d6883610a33565b90503373ffffffffffffffffffffffffffffffffffffffff168173ffffffffffffffffffffffffffffffffffffffff1614610dd8576040517f08c379a0000000000000000000000000000000000000000000000000000000008152600401610dcf90613f23565b60405180910390fd5b610de183611115565b610e20576040517f08c379a0000000000000000000000000000000000000000000000000000000008152600401610e1790613f8f565b60405180910390fd5b610e7183600e60003373ffffffffffffffffffffffffffffffffffffffff1673ffffffffffffffffffffffffffffffffffffffff168152602001908152602001600020611e7d90919063ffffffff16565b50610ec383600e60008773ffffffffffffffffffffffffffffffffffffffff1673ffffffffffffffffffffffffffffffffffffffff168152602001908152602001600020611e9790919063ffffffff16565b506000600f600085815260200190815260200160002060006101000a81548160ff021916908315150217905550610efb818585611b18565b7fa082022e93cfcd9f1da5f9236718053910f7e840da080c789c7845698dc032ff81858542604051610f309493929190613faf565b60405180910390a18291505092915050565b60008073ffffffffffffffffffffffffffffffffffffffff168273ffffffffffffffffffffffffffffffffffffffff1603610fb2576040517f08c379a0000000000000000000000000000000000000000000000000000000008152600401610fa990614066565b60405180910390fd5b600360008373ffffffffffffffffffffffffffffffffffffffff1673ffffffffffffffffffffffffffffffffffffffff168152602001908152602001600020549050919050565b600060606000806000600d60008781526020019081526020016000206000015490506000600d6000888152602001908152602001600020600101805461103e90613925565b80601f016020809104026020016040519081016040528092919081815260200182805461106a90613925565b80156110b75780601f1061108c576101008083540402835291602001916110b7565b820191906000526020600020905b81548152906001019060200180831161109a57829003601f168201915b505050505090506000600d60008981526020019081526020016000206002015490506000600f60008a815260200190815260200160002060009054906101000a900460ff169050838383839750975097509750505050509193509193565b6000600f600083815260200190815260200160002060009054906101000a900460ff169050919050565b60606001805461114e90613925565b80601f016020809104026020016040519081016040528092919081815260200182805461117a90613925565b80156111c75780601f1061119c576101008083540402835291602001916111c7565b820191906000526020600020905b8154815290600101906020018083116111aa57829003601f168201915b5050505050905090565b6111e36111dc6119c2565b8383611eb1565b5050565b6000600b60009054906101000a900473ffffffffffffffffffffffffffffffffffffffff1673ffffffffffffffffffffffffffffffffffffffff166391d14854600b60009054906101000a900473ffffffffffffffffffffffffffffffffffffffff1673ffffffffffffffffffffffffffffffffffffffff1663a29508fc6040518163ffffffff1660e01b8152600401602060405180830381865afa158015611294573d6000803e3d6000fd5b505050506040513d601f19601f820116820180604052508101906112b89190613d78565b336040518363ffffffff1660e01b81526004016112d6929190613db4565b602060405180830381865afa1580156112f3573d6000803e3d6000fd5b505050506040513d601f19601f820116820180604052508101906113179190613df2565b611356576040517f08c379a000000000000000000000000000000000000000000000000000000000815260040161134d906140f8565b60405180910390fd5b600061136183610a33565b90503373ffffffffffffffffffffffffffffffffffffffff168173ffffffffffffffffffffffffffffffffffffffff16146113d1576040517f08c379a00000000000000000000000000000000000000000000000000000000081526004016113c89061418a565b60405180910390fd5b6113da83611115565b611419576040517f08c379a00000000000000000000000000000000000000000000000000000000081526004016114109061421c565b60405180910390fd5b61146a83600e60003373ffffffffffffffffffffffffffffffffffffffff1673ffffffffffffffffffffffffffffffffffffffff168152602001908152602001600020611e7d90919063ffffffff16565b506114bc83600e60008773ffffffffffffffffffffffffffffffffffffffff1673ffffffffffffffffffffffffffffffffffffffff168152602001908152602001600020611e9790919063ffffffff16565b506114c8818585611b18565b8291505092915050565b6114e36114dd6119c2565b83611a83565b611522576040517f08c379a000000000000000000000000000000000000000000000000000000000815260040161151990613aec565b60405180910390fd5b61152e8484848461201d565b50505050565b606061153f82612079565b9050919050565b600f6020528060005260406000206000915054906101000a900460ff1681565b600b60009054906101000a900473ffffffffffffffffffffffffffffffffffffffff1673ffffffffffffffffffffffffffffffffffffffff166391d14854600b60009054906101000a900473ffffffffffffffffffffffffffffffffffffffff1673ffffffffffffffffffffffffffffffffffffffff1663a29508fc6040518163ffffffff1660e01b8152600401602060405180830381865afa158015611611573d6000803e3d6000fd5b505050506040513d601f19601f820116820180604052508101906116359190613d78565b336040518363ffffffff1660e01b8152600401611653929190613db4565b602060405180830381865afa158015611670573d6000803e3d6000fd5b505050506040513d601f19601f820116820180604052508101906116949190613df2565b6116d3576040517f08c379a00000000000000000000000000000000000000000000000000000000081526004016116ca906140f8565b60405180910390fd5b6116dd600c61218b565b60006116e9600c6121a1565b9050600060405180608001604052808381526020018481526020014281526020013373ffffffffffffffffffffffffffffffffffffffff16815250905080600d600084815260200190815260200160002060008201518160000155602082015181600101908161175991906143e8565b506040820151816002015560608201518160030160006101000a81548173ffffffffffffffffffffffffffffffffffffffff021916908373ffffffffffffffffffffffffffffffffffffffff1602179055509050506117ff82600e60003373ffffffffffffffffffffffffffffffffffffffff1673ffffffffffffffffffffffffffffffffffffffff168152602001908152602001600020611e9790919063ffffffff16565b506001600f600084815260200190815260200160002060006101000a81548160ff02191690831515021790555061183633836121af565b61184082846123cc565b7fe938b9d2b705e5134b47fa64c7f30e098db6c36f7a5dc0440e62314aa9a822dd8284423360405161187594939291906144ba565b60405180910390a1505050565b6000600560008473ffffffffffffffffffffffffffffffffffffffff1673ffffffffffffffffffffffffffffffffffffffff16815260200190815260200160002060008373ffffffffffffffffffffffffffffffffffffffff1673ffffffffffffffffffffffffffffffffffffffff16815260200190815260200160002060009054906101000a900460ff16905092915050565b6000634906490660e01b7bffffffffffffffffffffffffffffffffffffffffffffffffffffffff1916827bffffffffffffffffffffffffffffffffffffffffffffffffffffffff19161480611970575061196f82612470565b5b9050919050565b611980816124ea565b6119bf576040517f08c379a00000000000000000000000000000000000000000000000000000000081526004016119b690613d22565b60405180910390fd5b50565b600033905090565b816004600083815260200190815260200160002060006101000a81548173ffffffffffffffffffffffffffffffffffffffff021916908373ffffffffffffffffffffffffffffffffffffffff160217905550808273ffffffffffffffffffffffffffffffffffffffff16611a3d83610a33565b73ffffffffffffffffffffffffffffffffffffffff167f8c5be1e5ebec7d5bd14f71427d1e84f3dd0314c0f7b2291e5b200ac8c7c3b92560405160405180910390a45050565b600080611a8f83610a33565b90508073ffffffffffffffffffffffffffffffffffffffff168473ffffffffffffffffffffffffffffffffffffffff161480611ad15750611ad08185611882565b5b80611b0f57508373ffffffffffffffffffffffffffffffffffffffff16611af7846105b2565b73ffffffffffffffffffffffffffffffffffffffff16145b91505092915050565b8273ffffffffffffffffffffffffffffffffffffffff16611b3882610a33565b73ffffffffffffffffffffffffffffffffffffffff1614611b8e576040517f08c379a0000000000000000000000000000000000000000000000000000000008152600401611b8590614578565b60405180910390fd5b600073ffffffffffffffffffffffffffffffffffffffff168273ffffffffffffffffffffffffffffffffffffffff1603611bfd576040517f08c379a0000000000000000000000000000000000000000000000000000000008152600401611bf49061460a565b60405180910390fd5b611c0a838383600161252b565b8273ffffffffffffffffffffffffffffffffffffffff16611c2a82610a33565b73ffffffffffffffffffffffffffffffffffffffff1614611c80576040517f08c379a0000000000000000000000000000000000000000000000000000000008152600401611c7790614578565b60405180910390fd5b6004600082815260200190815260200160002060006101000a81549073ffffffffffffffffffffffffffffffffffffffff02191690556001600360008573ffffffffffffffffffffffffffffffffffffffff1673ffffffffffffffffffffffffffffffffffffffff168152602001908152602001600020600082825403925050819055506001600360008473ffffffffffffffffffffffffffffffffffffffff1673ffffffffffffffffffffffffffffffffffffffff16815260200190815260200160002060008282540192505081905550816002600083815260200190815260200160002060006101000a81548173ffffffffffffffffffffffffffffffffffffffff021916908373ffffffffffffffffffffffffffffffffffffffff160217905550808273ffffffffffffffffffffffffffffffffffffffff168473ffffffffffffffffffffffffffffffffffffffff167fddf252ad1be2c89b69c2b068fc378daa952ba7f163c4a11628f55a4df523b3ef60405160405180910390a4611e0c838383600161253d565b505050565b6000611e1f82600001612543565b9050919050565b6000611e358360000183612554565b60001c905092915050565b60006002600083815260200190815260200160002060009054906101000a900473ffffffffffffffffffffffffffffffffffffffff169050919050565b6000611e8f836000018360001b61257f565b905092915050565b6000611ea9836000018360001b612693565b905092915050565b8173ffffffffffffffffffffffffffffffffffffffff168373ffffffffffffffffffffffffffffffffffffffff1603611f1f576040517f08c379a0000000000000000000000000000000000000000000000000000000008152600401611f1690614676565b60405180910390fd5b80600560008573ffffffffffffffffffffffffffffffffffffffff1673ffffffffffffffffffffffffffffffffffffffff16815260200190815260200160002060008473ffffffffffffffffffffffffffffffffffffffff1673ffffffffffffffffffffffffffffffffffffffff16815260200190815260200160002060006101000a81548160ff0219169083151502179055508173ffffffffffffffffffffffffffffffffffffffff168373ffffffffffffffffffffffffffffffffffffffff167f17307eab39ab6107e8899845ad3d59bd9653f200f220920489ca2b5937696c318360405161201091906131da565b60405180910390a3505050565b612028848484611b18565b61203484848484612703565b612073576040517f08c379a000000000000000000000000000000000000000000000000000000000815260040161206a90614708565b60405180910390fd5b50505050565b606061208482611977565b6000600a600084815260200190815260200160002080546120a490613925565b80601f01602080910402602001604051908101604052809291908181526020018280546120d090613925565b801561211d5780601f106120f25761010080835404028352916020019161211d565b820191906000526020600020905b81548152906001019060200180831161210057829003601f168201915b50505050509050600061212e61288a565b90506000815103612143578192505050612186565b600082511115612178578082604051602001612160929190614764565b60405160208183030381529060405292505050612186565b612181846128a1565b925050505b919050565b6001816000016000828254019250508190555050565b600081600001549050919050565b600073ffffffffffffffffffffffffffffffffffffffff168273ffffffffffffffffffffffffffffffffffffffff160361221e576040517f08c379a0000000000000000000000000000000000000000000000000000000008152600401612215906147d4565b60405180910390fd5b612227816124ea565b15612267576040517f08c379a000000000000000000000000000000000000000000000000000000000815260040161225e90614840565b60405180910390fd5b61227560008383600161252b565b61227e816124ea565b156122be576040517f08c379a00000000000000000000000000000000000000000000000000000000081526004016122b590614840565b60405180910390fd5b6001600360008473ffffffffffffffffffffffffffffffffffffffff1673ffffffffffffffffffffffffffffffffffffffff16815260200190815260200160002060008282540192505081905550816002600083815260200190815260200160002060006101000a81548173ffffffffffffffffffffffffffffffffffffffff021916908373ffffffffffffffffffffffffffffffffffffffff160217905550808273ffffffffffffffffffffffffffffffffffffffff16600073ffffffffffffffffffffffffffffffffffffffff167fddf252ad1be2c89b69c2b068fc378daa952ba7f163c4a11628f55a4df523b3ef60405160405180910390a46123c860008383600161253d565b5050565b6123d5826124ea565b612414576040517f08c379a000000000000000000000000000000000000000000000000000000000815260040161240b906148d2565b60405180910390fd5b80600a6000848152602001908152602001600020908161243491906143e8565b507ff8e1a15aba9398e019f0b49df1a4fde98ee17ae345cb5f6b5e2c27f5033e8ce78260405161246491906133e1565b60405180910390a15050565b60007f780e9d63000000000000000000000000000000000000000000000000000000007bffffffffffffffffffffffffffffffffffffffffffffffffffffffff1916827bffffffffffffffffffffffffffffffffffffffffffffffffffffffff191614806124e357506124e282612909565b5b9050919050565b60008073ffffffffffffffffffffffffffffffffffffffff1661250c83611e40565b73ffffffffffffffffffffffffffffffffffffffff1614159050919050565b612537848484846129eb565b50505050565b50505050565b600081600001805490509050919050565b600082600001828154811061256c5761256b613b9e565b5b9060005260206000200154905092915050565b600080836001016000848152602001908152602001600020549050600081146126875760006001826125b191906148f2565b90506000600186600001805490506125c991906148f2565b90508181146126385760008660000182815481106125ea576125e9613b9e565b5b906000526020600020015490508087600001848154811061260e5761260d613b9e565b5b90600052602060002001819055508387600101600083815260200190815260200160002081905550505b8560000180548061264c5761264b614926565b5b60019003818190600052602060002001600090559055856001016000868152602001908152602001600020600090556001935050505061268d565b60009150505b92915050565b600061269f8383612b49565b6126f85782600001829080600181540180825580915050600190039060005260206000200160009091909190915055826000018054905083600101600084815260200190815260200160002081905550600190506126fd565b600090505b92915050565b60006127248473ffffffffffffffffffffffffffffffffffffffff16612b6c565b1561287d578373ffffffffffffffffffffffffffffffffffffffff1663150b7a0261274d6119c2565b8786866040518563ffffffff1660e01b815260040161276f94939291906149aa565b6020604051808303816000875af19250505080156127ab57506040513d601f19601f820116820180604052508101906127a89190614a0b565b60015b61282d573d80600081146127db576040519150601f19603f3d011682016040523d82523d6000602084013e6127e0565b606091505b506000815103612825576040517f08c379a000000000000000000000000000000000000000000000000000000000815260040161281c90614708565b60405180910390fd5b805181602001fd5b63150b7a0260e01b7bffffffffffffffffffffffffffffffffffffffffffffffffffffffff1916817bffffffffffffffffffffffffffffffffffffffffffffffffffffffff191614915050612882565b600190505b949350505050565b606060405180602001604052806000815250905090565b60606128ac82611977565b60006128b661288a565b905060008151116128d65760405180602001604052806000815250612901565b806128e084612b8f565b6040516020016128f1929190614764565b6040516020818303038152906040525b915050919050565b60007f80ac58cd000000000000000000000000000000000000000000000000000000007bffffffffffffffffffffffffffffffffffffffffffffffffffffffff1916827bffffffffffffffffffffffffffffffffffffffffffffffffffffffff191614806129d457507f5b5e139f000000000000000000000000000000000000000000000000000000007bffffffffffffffffffffffffffffffffffffffffffffffffffffffff1916827bffffffffffffffffffffffffffffffffffffffffffffffffffffffff1916145b806129e457506129e382612c5d565b5b9050919050565b6129f784848484612cc7565b6001811115612a3b576040517f08c379a0000000000000000000000000000000000000000000000000000000008152600401612a3290614aaa565b60405180910390fd5b6000829050600073ffffffffffffffffffffffffffffffffffffffff168573ffffffffffffffffffffffffffffffffffffffff1603612a8257612a7d81612ccd565b612ac1565b8373ffffffffffffffffffffffffffffffffffffffff168573ffffffffffffffffffffffffffffffffffffffff1614612ac057612abf8582612d16565b5b5b600073ffffffffffffffffffffffffffffffffffffffff168473ffffffffffffffffffffffffffffffffffffffff1603612b0357612afe81612e83565b612b42565b8473ffffffffffffffffffffffffffffffffffffffff168473ffffffffffffffffffffffffffffffffffffffff1614612b4157612b408482612f54565b5b5b5050505050565b600080836001016000848152602001908152602001600020541415905092915050565b6000808273ffffffffffffffffffffffffffffffffffffffff163b119050919050565b606060006001612b9e84612fd3565b01905060008167ffffffffffffffff811115612bbd57612bbc61361e565b5b6040519080825280601f01601f191660200182016040528015612bef5781602001600182028036833780820191505090505b509050600082602001820190505b600115612c52578080600190039150507f3031323334353637383961626364656600000000000000000000000000000000600a86061a8153600a8581612c4657612c45614aca565b5b04945060008503612bfd575b819350505050919050565b60007f01ffc9a7000000000000000000000000000000000000000000000000000000007bffffffffffffffffffffffffffffffffffffffffffffffffffffffff1916827bffffffffffffffffffffffffffffffffffffffffffffffffffffffff1916149050919050565b50505050565b6008805490506009600083815260200190815260200160002081905550600881908060018154018082558091505060019003906000526020600020016000909190919091505550565b60006001612d2384610f42565b612d2d91906148f2565b9050600060076000848152602001908152602001600020549050818114612e12576000600660008673ffffffffffffffffffffffffffffffffffffffff1673ffffffffffffffffffffffffffffffffffffffff168152602001908152602001600020600084815260200190815260200160002054905080600660008773ffffffffffffffffffffffffffffffffffffffff1673ffffffffffffffffffffffffffffffffffffffff168152602001908152602001600020600084815260200190815260200160002081905550816007600083815260200190815260200160002081905550505b6007600084815260200190815260200160002060009055600660008573ffffffffffffffffffffffffffffffffffffffff1673ffffffffffffffffffffffffffffffffffffffff16815260200190815260200160002060008381526020019081526020016000206000905550505050565b60006001600880549050612e9791906148f2565b9050600060096000848152602001908152602001600020549050600060088381548110612ec757612ec6613b9e565b5b906000526020600020015490508060088381548110612ee957612ee8613b9e565b5b906000526020600020018190555081600960008381526020019081526020016000208190555060096000858152602001908152602001600020600090556008805480612f3857612f37614926565b5b6001900381819060005260206000200160009055905550505050565b6000612f5f83610f42565b905081600660008573ffffffffffffffffffffffffffffffffffffffff1673ffffffffffffffffffffffffffffffffffffffff168152602001908152602001600020600083815260200190815260200160002081905550806007600084815260200190815260200160002081905550505050565b600080600090507a184f03e93ff9f4daa797ed6e38ed64bf6a1f0100000000000000008310613031577a184f03e93ff9f4daa797ed6e38ed64bf6a1f010000000000000000838161302757613026614aca565b5b0492506040810190505b6d04ee2d6d415b85acef8100000000831061306e576d04ee2d6d415b85acef8100000000838161306457613063614aca565b5b0492506020810190505b662386f26fc10000831061309d57662386f26fc10000838161309357613092614aca565b5b0492506010810190505b6305f5e10083106130c6576305f5e10083816130bc576130bb614aca565b5b0492506008810190505b61271083106130eb5761271083816130e1576130e0614aca565b5b0492506004810190505b6064831061310e576064838161310457613103614aca565b5b0492506002810190505b600a831061311d576001810190505b80915050919050565b6000604051905090565b600080fd5b600080fd5b60007fffffffff0000000000000000000000000000000000000000000000000000000082169050919050565b61316f8161313a565b811461317a57600080fd5b50565b60008135905061318c81613166565b92915050565b6000602082840312156131a8576131a7613130565b5b60006131b68482850161317d565b91505092915050565b60008115159050919050565b6131d4816131bf565b82525050565b60006020820190506131ef60008301846131cb565b92915050565b600081519050919050565b600082825260208201905092915050565b60005b8381101561322f578082015181840152602081019050613214565b60008484015250505050565b6000601f19601f8301169050919050565b6000613257826131f5565b6132618185613200565b9350613271818560208601613211565b61327a8161323b565b840191505092915050565b6000602082019050818103600083015261329f818461324c565b905092915050565b6000819050919050565b6132ba816132a7565b81146132c557600080fd5b50565b6000813590506132d7816132b1565b92915050565b6000602082840312156132f3576132f2613130565b5b6000613301848285016132c8565b91505092915050565b600073ffffffffffffffffffffffffffffffffffffffff82169050919050565b60006133358261330a565b9050919050565b6133458161332a565b82525050565b6000602082019050613360600083018461333c565b92915050565b61336f8161332a565b811461337a57600080fd5b50565b60008135905061338c81613366565b92915050565b600080604083850312156133a9576133a8613130565b5b60006133b78582860161337d565b92505060206133c8858286016132c8565b9150509250929050565b6133db816132a7565b82525050565b60006020820190506133f660008301846133d2565b92915050565b60008060006060848603121561341557613414613130565b5b60006134238682870161337d565b93505060206134348682870161337d565b9250506040613445868287016132c8565b9150509250925092565b600081519050919050565b600082825260208201905092915050565b6000819050602082019050919050565b613484816132a7565b82525050565b6000613496838361347b565b60208301905092915050565b6000602082019050919050565b60006134ba8261344f565b6134c4818561345a565b93506134cf8361346b565b8060005b838110156135005781516134e7888261348a565b97506134f2836134a2565b9250506001810190506134d3565b5085935050505092915050565b6000602082019050818103600083015261352781846134af565b905092915050565b60006020828403121561354557613544613130565b5b60006135538482850161337d565b91505092915050565b600060808201905061357160008301876133d2565b8181036020830152613583818661324c565b905061359260408301856133d2565b61359f60608301846131cb565b95945050505050565b6135b1816131bf565b81146135bc57600080fd5b50565b6000813590506135ce816135a8565b92915050565b600080604083850312156135eb576135ea613130565b5b60006135f98582860161337d565b925050602061360a858286016135bf565b9150509250929050565b600080fd5b600080fd5b7f4e487b7100000000000000000000000000000000000000000000000000000000600052604160045260246000fd5b6136568261323b565b810181811067ffffffffffffffff821117156136755761367461361e565b5b80604052505050565b6000613688613126565b9050613694828261364d565b919050565b600067ffffffffffffffff8211156136b4576136b361361e565b5b6136bd8261323b565b9050602081019050919050565b82818337600083830152505050565b60006136ec6136e784613699565b61367e565b90508281526020810184848401111561370857613707613619565b5b6137138482856136ca565b509392505050565b600082601f8301126137305761372f613614565b5b81356137408482602086016136d9565b91505092915050565b6000806000806080858703121561376357613762613130565b5b60006137718782880161337d565b94505060206137828782880161337d565b9350506040613793878288016132c8565b925050606085013567ffffffffffffffff8111156137b4576137b3613135565b5b6137c08782880161371b565b91505092959194509250565b600067ffffffffffffffff8211156137e7576137e661361e565b5b6137f08261323b565b9050602081019050919050565b600061381061380b846137cc565b61367e565b90508281526020810184848401111561382c5761382b613619565b5b6138378482856136ca565b509392505050565b600082601f83011261385457613853613614565b5b81356138648482602086016137fd565b91505092915050565b60006020828403121561388357613882613130565b5b600082013567ffffffffffffffff8111156138a1576138a0613135565b5b6138ad8482850161383f565b91505092915050565b600080604083850312156138cd576138cc613130565b5b60006138db8582860161337d565b92505060206138ec8582860161337d565b9150509250929050565b7f4e487b7100000000000000000000000000000000000000000000000000000000600052602260045260246000fd5b6000600282049050600182168061393d57607f821691505b6020821081036139505761394f6138f6565b5b50919050565b7f4552433732313a20617070726f76616c20746f2063757272656e74206f776e6560008201527f7200000000000000000000000000000000000000000000000000000000000000602082015250565b60006139b2602183613200565b91506139bd82613956565b604082019050919050565b600060208201905081810360008301526139e1816139a5565b9050919050565b7f4552433732313a20617070726f76652063616c6c6572206973206e6f7420746f60008201527f6b656e206f776e6572206f7220617070726f76656420666f7220616c6c000000602082015250565b6000613a44603d83613200565b9150613a4f826139e8565b604082019050919050565b60006020820190508181036000830152613a7381613a37565b9050919050565b7f4552433732313a2063616c6c6572206973206e6f7420746f6b656e206f776e6560008201527f72206f7220617070726f76656400000000000000000000000000000000000000602082015250565b6000613ad6602d83613200565b9150613ae182613a7a565b604082019050919050565b60006020820190508181036000830152613b0581613ac9565b9050919050565b7f455243373231456e756d657261626c653a206f776e657220696e646578206f7560008201527f74206f6620626f756e6473000000000000000000000000000000000000000000602082015250565b6000613b68602b83613200565b9150613b7382613b0c565b604082019050919050565b60006020820190508181036000830152613b9781613b5b565b9050919050565b7f4e487b7100000000000000000000000000000000000000000000000000000000600052603260045260246000fd5b7f4e487b7100000000000000000000000000000000000000000000000000000000600052601160045260246000fd5b6000613c07826132a7565b91507fffffffffffffffffffffffffffffffffffffffffffffffffffffffffffffffff8203613c3957613c38613bcd565b5b600182019050919050565b7f455243373231456e756d657261626c653a20676c6f62616c20696e646578206f60008201527f7574206f6620626f756e64730000000000000000000000000000000000000000602082015250565b6000613ca0602c83613200565b9150613cab82613c44565b604082019050919050565b60006020820190508181036000830152613ccf81613c93565b9050919050565b7f4552433732313a20696e76616c696420746f6b656e2049440000000000000000600082015250565b6000613d0c601883613200565b9150613d1782613cd6565b602082019050919050565b60006020820190508181036000830152613d3b81613cff565b9050919050565b6000819050919050565b613d5581613d42565b8114613d6057600080fd5b50565b600081519050613d7281613d4c565b92915050565b600060208284031215613d8e57613d8d613130565b5b6000613d9c84828501613d63565b91505092915050565b613dae81613d42565b82525050565b6000604082019050613dc96000830185613da5565b613dd6602083018461333c565b9392505050565b600081519050613dec816135a8565b92915050565b600060208284031215613e0857613e07613130565b5b6000613e1684828501613ddd565b91505092915050565b7f4f6e6c7920737570706c69657273206f722076656e646f72732063616e20706560008201527f72666f726d2074686973207461736b0000000000000000000000000000000000602082015250565b6000613e7b602f83613200565b9150613e8682613e1f565b604082019050919050565b60006020820190508181036000830152613eaa81613e6e565b9050919050565b7f4f6e6c79206f776e6572206f66207468697320746f6b656e2063616e2073656c60008201527f6c00000000000000000000000000000000000000000000000000000000000000602082015250565b6000613f0d602183613200565b9150613f1882613eb1565b604082019050919050565b60006020820190508181036000830152613f3c81613f00565b9050919050565b7f496e76616c696420746f6b656e732063616e7420626520736f6c640000000000600082015250565b6000613f79601b83613200565b9150613f8482613f43565b602082019050919050565b60006020820190508181036000830152613fa881613f6c565b9050919050565b6000608082019050613fc4600083018761333c565b613fd1602083018661333c565b613fde60408301856133d2565b613feb60608301846133d2565b95945050505050565b7f4552433732313a2061646472657373207a65726f206973206e6f74206120766160008201527f6c6964206f776e65720000000000000000000000000000000000000000000000602082015250565b6000614050602983613200565b915061405b82613ff4565b604082019050919050565b6000602082019050818103600083015261407f81614043565b9050919050565b7f4f6e6c7920737570706c69657220726f6c65732063616e20706572666f726d2060008201527f74686973207461736b0000000000000000000000000000000000000000000000602082015250565b60006140e2602983613200565b91506140ed82614086565b604082019050919050565b60006020820190508181036000830152614111816140d5565b9050919050565b7f4f6e6c79206f776e6572206f66207468697320746f6b656e2063616e2074726160008201527f6e73666572000000000000000000000000000000000000000000000000000000602082015250565b6000614174602583613200565b915061417f82614118565b604082019050919050565b600060208201905081810360008301526141a381614167565b9050919050565b7f496e76616c696420746f6b656e732063616e74206265207472616e736665727260008201527f6564000000000000000000000000000000000000000000000000000000000000602082015250565b6000614206602283613200565b9150614211826141aa565b604082019050919050565b60006020820190508181036000830152614235816141f9565b9050919050565b60008190508160005260206000209050919050565b60006020601f8301049050919050565b600082821b905092915050565b60006008830261429e7fffffffffffffffffffffffffffffffffffffffffffffffffffffffffffffffff82614261565b6142a88683614261565b95508019841693508086168417925050509392505050565b6000819050919050565b60006142e56142e06142db846132a7565b6142c0565b6132a7565b9050919050565b6000819050919050565b6142ff836142ca565b61431361430b826142ec565b84845461426e565b825550505050565b600090565b61432861431b565b6143338184846142f6565b505050565b5b818110156143575761434c600082614320565b600181019050614339565b5050565b601f82111561439c5761436d8161423c565b61437684614251565b81016020851015614385578190505b61439961439185614251565b830182614338565b50505b505050565b600082821c905092915050565b60006143bf600019846008026143a1565b1980831691505092915050565b60006143d883836143ae565b9150826002028217905092915050565b6143f1826131f5565b67ffffffffffffffff81111561440a5761440961361e565b5b6144148254613925565b61441f82828561435b565b600060209050601f8311600181146144525760008415614440578287015190505b61444a85826143cc565b8655506144b2565b601f1984166144608661423c565b60005b8281101561448857848901518255600182019150602085019450602081019050614463565b868310156144a557848901516144a1601f8916826143ae565b8355505b6001600288020188555050505b505050505050565b60006080820190506144cf60008301876133d2565b81810360208301526144e1818661324c565b90506144f060408301856133d2565b6144fd606083018461333c565b95945050505050565b7f4552433732313a207472616e736665722066726f6d20696e636f72726563742060008201527f6f776e6572000000000000000000000000000000000000000000000000000000602082015250565b6000614562602583613200565b915061456d82614506565b604082019050919050565b6000602082019050818103600083015261459181614555565b9050919050565b7f4552433732313a207472616e7366657220746f20746865207a65726f2061646460008201527f7265737300000000000000000000000000000000000000000000000000000000602082015250565b60006145f4602483613200565b91506145ff82614598565b604082019050919050565b60006020820190508181036000830152614623816145e7565b9050919050565b7f4552433732313a20617070726f766520746f2063616c6c657200000000000000600082015250565b6000614660601983613200565b915061466b8261462a565b602082019050919050565b6000602082019050818103600083015261468f81614653565b9050919050565b7f4552433732313a207472616e7366657220746f206e6f6e20455243373231526560008201527f63656976657220696d706c656d656e7465720000000000000000000000000000602082015250565b60006146f2603283613200565b91506146fd82614696565b604082019050919050565b60006020820190508181036000830152614721816146e5565b9050919050565b600081905092915050565b600061473e826131f5565b6147488185614728565b9350614758818560208601613211565b80840191505092915050565b60006147708285614733565b915061477c8284614733565b91508190509392505050565b7f4552433732313a206d696e7420746f20746865207a65726f2061646472657373600082015250565b60006147be602083613200565b91506147c982614788565b602082019050919050565b600060208201905081810360008301526147ed816147b1565b9050919050565b7f4552433732313a20746f6b656e20616c7265616479206d696e74656400000000600082015250565b600061482a601c83613200565b9150614835826147f4565b602082019050919050565b600060208201905081810360008301526148598161481d565b9050919050565b7f45524337323155524953746f726167653a2055524920736574206f66206e6f6e60008201527f6578697374656e7420746f6b656e000000000000000000000000000000000000602082015250565b60006148bc602e83613200565b91506148c782614860565b604082019050919050565b600060208201905081810360008301526148eb816148af565b9050919050565b60006148fd826132a7565b9150614908836132a7565b92508282039050818111156149205761491f613bcd565b5b92915050565b7f4e487b7100000000000000000000000000000000000000000000000000000000600052603160045260246000fd5b600081519050919050565b600082825260208201905092915050565b600061497c82614955565b6149868185614960565b9350614996818560208601613211565b61499f8161323b565b840191505092915050565b60006080820190506149bf600083018761333c565b6149cc602083018661333c565b6149d960408301856133d2565b81810360608301526149eb8184614971565b905095945050505050565b600081519050614a0581613166565b92915050565b600060208284031215614a2157614a20613130565b5b6000614a2f848285016149f6565b91505092915050565b7f455243373231456e756d657261626c653a20636f6e736563757469766520747260008201527f616e7366657273206e6f7420737570706f727465640000000000000000000000602082015250565b6000614a94603583613200565b9150614a9f82614a38565b604082019050919050565b60006020820190508181036000830152614ac381614a87565b9050919050565b7f4e487b7100000000000000000000000000000000000000000000000000000000600052601260045260246000fdfea2646970667358221220bf7f9984b5bfee2f6d1091e5c449d093b9e4068ce3dc91cc41d65147f66ce9a164736f6c63430008130033",
  "linkReferences": {},
  "deployedLinkReferences": {}
}