{
  "_format": "hh-sol-artifact-1",
  "contractName": "Roles",
  "sourceName": "contracts/Roles.sol",
  "abi": [
    {
      "anonymous": false,
      "inputs": [
        {
          "indexed": true,
          "internalType": "address",
          "name": "account",
          "type": "address"
        },
        {
          "indexed": true,
          "internalType": "bytes32",
          "name": "role",
          "type": "bytes32"
        },
        {
          "indexed": false,
          "internalType": "string",
          "name": "name",
          "type": "string"
        }
      ],
      "name": "ProfileRegistered",
      "type": "event"
    },
    {
      "anonymous": false,
      "inputs": [
        {
          "indexed": true,
          "internalType": "bytes32",
          "name": "role",
          "type": "bytes32"
        },
        {
          "indexed": true,
          "internalType": "bytes32",
          "name": "previousAdminRole",
          "type": "bytes32"
        },
        {
          "indexed": true,
          "internalType": "bytes32",
          "name": "newAdminRole",
          "type": "bytes32"
        }
      ],
      "name": "RoleAdminChanged",
      "type": "event"
    },
    {
      "anonymous": false,
      "inputs": [
        {
          "indexed": true,
          "internalType": "bytes32",
          "name": "role",
          "type": "bytes32"
        },
        {
          "indexed": true,
          "internalType": "address",
          "name": "account",
          "type": "address"
        },
        {
          "indexed": true,
          "internalType": "address",
          "name": "sender",
          "type": "address"
        }
      ],
      "name": "RoleGranted",
      "type": "event"
    },
    {
      "anonymous": false,
      "inputs": [
        {
          "indexed": true,
          "internalType": "bytes32",
          "name": "role",
          "type": "bytes32"
        },
        {
          "indexed": true,
          "internalType": "address",
          "name": "account",
          "type": "address"
        },
        {
          "indexed": true,
          "internalType": "address",
          "name": "sender",
          "type": "address"
        }
      ],
      "name": "RoleRevoked",
      "type": "event"
    },
    {
      "inputs": [],
      "name": "DEFAULT_ADMIN_ROLE",
      "outputs": [
        {
          "internalType": "bytes32",
          "name": "",
          "type": "bytes32"
        }
      ],
      "stateMutability": "view",
      "type": "function"
    },
    {
      "inputs": [],
      "name": "SUPPLIER_ROLE",
      "outputs": [
        {
          "internalType": "bytes32",
          "name": "",
          "type": "bytes32"
        }
      ],
      "stateMutability": "view",
      "type": "function"
    },
    {
      "inputs": [],
      "name": "VENDOR_ROLE",
      "outputs": [
        {
          "internalType": "bytes32",
          "name": "",
          "type": "bytes32"
        }
      ],
      "stateMutability": "view",
      "type": "function"
    },
    {
      "inputs": [
        {
          "internalType": "bytes32",
          "name": "role",
          "type": "bytes32"
        }
      ],
      "name": "getRoleAdmin",
      "outputs": [
        {
          "internalType": "bytes32",
          "name": "",
          "type": "bytes32"
        }
      ],
      "stateMutability": "view",
      "type": "function"
    },
    {
      "inputs": [
        {
          "internalType": "bytes32",
          "name": "role",
          "type": "bytes32"
        },
        {
          "internalType": "address",
          "name": "account",
          "type": "address"
        }
      ],
      "name": "grantRole",
      "outputs": [],
      "stateMutability": "nonpayable",
      "type": "function"
    },
    {
      "inputs": [
        {
          "internalType": "bytes32",
          "name": "role",
          "type": "bytes32"
        },
        {
          "internalType": "address",
          "name": "account",
          "type": "address"
        }
      ],
      "name": "hasRole",
      "outputs": [
        {
          "internalType": "bool",
          "name": "",
          "type": "bool"
        }
      ],
      "stateMutability": "view",
      "type": "function"
    },
    {
      "inputs": [
        {
          "internalType": "string",
          "name": "_name",
          "type": "string"
        },
        {
          "internalType": "string",
          "name": "_description",
          "type": "string"
        }
      ],
      "name": "registerSupplier",
      "outputs": [
        {
          "internalType": "bool",
          "name": "",
          "type": "bool"
        }
      ],
      "stateMutability": "nonpayable",
      "type": "function"
    },
    {
      "inputs": [
        {
          "internalType": "string",
          "name": "_name",
          "type": "string"
        },
        {
          "internalType": "string",
          "name": "_description",
          "type": "string"
        }
      ],
      "name": "registerVendor",
      "outputs": [
        {
          "internalType": "bool",
          "name": "",
          "type": "bool"
        }
      ],
      "stateMutability": "nonpayable",
      "type": "function"
    },
    {
      "inputs": [
        {
          "internalType": "bytes32",
          "name": "role",
          "type": "bytes32"
        },
        {
          "internalType": "address",
          "name": "account",
          "type": "address"
        }
      ],
      "name": "renounceRole",
      "outputs": [],
      "stateMutability": "nonpayable",
      "type": "function"
    },
    {
      "inputs": [
        {
          "internalType": "bytes32",
          "name": "role",
          "type": "bytes32"
        },
        {
          "internalType": "address",
          "name": "account",
          "type": "address"
        }
      ],
      "name": "revokeRole",
      "outputs": [],
      "stateMutability": "nonpayable",
      "type": "function"
    },
    {
      "inputs": [
        {
          "internalType": "address",
          "name": "",
          "type": "address"
        }
      ],
      "name": "suppliers",
      "outputs": [
        {
          "internalType": "string",
          "name": "name",
          "type": "string"
        },
        {
          "internalType": "string",
          "name": "description",
          "type": "string"
        }
      ],
      "stateMutability": "view",
      "type": "function"
    },
    {
      "inputs": [
        {
          "internalType": "bytes4",
          "name": "interfaceId",
          "type": "bytes4"
        }
      ],
      "name": "supportsInterface",
      "outputs": [
        {
          "internalType": "bool",
          "name": "",
          "type": "bool"
        }
      ],
      "stateMutability": "view",
      "type": "function"
    },
    {
      "inputs": [
        {
          "internalType": "address",
          "name": "",
          "type": "address"
        }
      ],
      "name": "vendors",
      "outputs": [
        {
          "internalType": "string",
          "name": "name",
          "type": "string"
        },
        {
          "internalType": "string",
          "name": "description",
          "type": "string"
        }
      ],
      "stateMutability": "view",
      "type": "function"
    }
  ],
  "bytecode": "0x608060405234801561001057600080fd5b50611c3c806100206000396000f3fe608060405234801561001057600080fd5b50600436106100cf5760003560e01c806374e8807d1161008c578063a217fddf11610066578063a217fddf1461024c578063a29508fc1461026a578063ac7e1e3214610288578063d547741f146102b8576100cf565b806374e8807d146101ce57806391d14854146101fe578063926a694d1461022e576100cf565b806301ffc9a7146100d457806316dc15fe14610104578063248a9ca31461013557806327e30c36146101655780632f2ff15d1461019657806336568abe146101b2575b600080fd5b6100ee60048036038101906100e991906110ec565b6102d4565b6040516100fb9190611134565b60405180910390f35b61011e600480360381019061011991906111ad565b61034e565b60405161012c92919061126a565b60405180910390f35b61014f600480360381019061014a91906112d7565b610482565b60405161015c9190611313565b60405180910390f35b61017f600480360381019061017a91906111ad565b6104a1565b60405161018d92919061126a565b60405180910390f35b6101b060048036038101906101ab919061132e565b6105d5565b005b6101cc60048036038101906101c7919061132e565b6105f6565b005b6101e860048036038101906101e391906114a3565b610679565b6040516101f59190611134565b60405180910390f35b6102186004803603810190610213919061132e565b610875565b6040516102259190611134565b60405180910390f35b6102366108df565b6040516102439190611313565b60405180910390f35b610254610903565b6040516102619190611313565b60405180910390f35b61027261090a565b60405161027f9190611313565b60405180910390f35b6102a2600480360381019061029d91906114a3565b61092e565b6040516102af9190611134565b60405180910390f35b6102d260048036038101906102cd919061132e565b610b2a565b005b60007f7965db0b000000000000000000000000000000000000000000000000000000007bffffffffffffffffffffffffffffffffffffffffffffffffffffffff1916827bffffffffffffffffffffffffffffffffffffffffffffffffffffffff19161480610347575061034682610b4b565b5b9050919050565b60016020528060005260406000206000915090508060000180546103719061154a565b80601f016020809104026020016040519081016040528092919081815260200182805461039d9061154a565b80156103ea5780601f106103bf576101008083540402835291602001916103ea565b820191906000526020600020905b8154815290600101906020018083116103cd57829003601f168201915b5050505050908060010180546103ff9061154a565b80601f016020809104026020016040519081016040528092919081815260200182805461042b9061154a565b80156104785780601f1061044d57610100808354040283529160200191610478565b820191906000526020600020905b81548152906001019060200180831161045b57829003601f168201915b5050505050905082565b6000806000838152602001908152602001600020600101549050919050565b60026020528060005260406000206000915090508060000180546104c49061154a565b80601f01602080910402602001604051908101604052809291908181526020018280546104f09061154a565b801561053d5780601f106105125761010080835404028352916020019161053d565b820191906000526020600020905b81548152906001019060200180831161052057829003601f168201915b5050505050908060010180546105529061154a565b80601f016020809104026020016040519081016040528092919081815260200182805461057e9061154a565b80156105cb5780601f106105a0576101008083540402835291602001916105cb565b820191906000526020600020905b8154815290600101906020018083116105ae57829003601f168201915b5050505050905082565b6105de82610482565b6105e781610bb5565b6105f18383610bc9565b505050565b6105fe610ca9565b73ffffffffffffffffffffffffffffffffffffffff168173ffffffffffffffffffffffffffffffffffffffff161461066b576040517f08c379a0000000000000000000000000000000000000000000000000000000008152600401610662906115ed565b60405180910390fd5b6106758282610cb1565b5050565b60006106a57fd1ae8bbdabd60d63e418b84f5ad6f9cba90092c9816d7724d85f0d4e4bea2c6033610875565b156106e5576040517f08c379a00000000000000000000000000000000000000000000000000000000081526004016106dc90611659565b60405180910390fd5b61070f7fb66d507c1e3c1bc237b923feddf01f16873f6a23c218ec08d1c8983da3c5630933610875565b1561074f576040517f08c379a0000000000000000000000000000000000000000000000000000000008152600401610746906116c5565b60405180910390fd5b604051806040016040528084815260200183815250600260003373ffffffffffffffffffffffffffffffffffffffff1673ffffffffffffffffffffffffffffffffffffffff16815260200190815260200160002060008201518160000190816107b8919061189b565b5060208201518160010190816107ce919061189b565b509050506107fc7fb66d507c1e3c1bc237b923feddf01f16873f6a23c218ec08d1c8983da3c5630933610bc9565b7fb66d507c1e3c1bc237b923feddf01f16873f6a23c218ec08d1c8983da3c563093373ffffffffffffffffffffffffffffffffffffffff167f0cd0cb349ac194bf6f44ee50a15de181c00444aeacc26823c07c20d41163a9be85604051610863919061196d565b60405180910390a36001905092915050565b600080600084815260200190815260200160002060000160008373ffffffffffffffffffffffffffffffffffffffff1673ffffffffffffffffffffffffffffffffffffffff16815260200190815260200160002060009054906101000a900460ff16905092915050565b7fb66d507c1e3c1bc237b923feddf01f16873f6a23c218ec08d1c8983da3c5630981565b6000801b81565b7fd1ae8bbdabd60d63e418b84f5ad6f9cba90092c9816d7724d85f0d4e4bea2c6081565b600061095a7fd1ae8bbdabd60d63e418b84f5ad6f9cba90092c9816d7724d85f0d4e4bea2c6033610875565b1561099a576040517f08c379a000000000000000000000000000000000000000000000000000000000815260040161099190611659565b60405180910390fd5b6109c47fb66d507c1e3c1bc237b923feddf01f16873f6a23c218ec08d1c8983da3c5630933610875565b15610a04576040517f08c379a00000000000000000000000000000000000000000000000000000000081526004016109fb906116c5565b60405180910390fd5b604051806040016040528084815260200183815250600160003373ffffffffffffffffffffffffffffffffffffffff1673ffffffffffffffffffffffffffffffffffffffff1681526020019081526020016000206000820151816000019081610a6d919061189b565b506020820151816001019081610a83919061189b565b50905050610ab17fd1ae8bbdabd60d63e418b84f5ad6f9cba90092c9816d7724d85f0d4e4bea2c6033610bc9565b7fd1ae8bbdabd60d63e418b84f5ad6f9cba90092c9816d7724d85f0d4e4bea2c603373ffffffffffffffffffffffffffffffffffffffff167f0cd0cb349ac194bf6f44ee50a15de181c00444aeacc26823c07c20d41163a9be85604051610b18919061196d565b60405180910390a36001905092915050565b610b3382610482565b610b3c81610bb5565b610b468383610cb1565b505050565b60007f01ffc9a7000000000000000000000000000000000000000000000000000000007bffffffffffffffffffffffffffffffffffffffffffffffffffffffff1916827bffffffffffffffffffffffffffffffffffffffffffffffffffffffff1916149050919050565b610bc681610bc1610ca9565b610d92565b50565b610bd38282610875565b610ca557600160008084815260200190815260200160002060000160008373ffffffffffffffffffffffffffffffffffffffff1673ffffffffffffffffffffffffffffffffffffffff16815260200190815260200160002060006101000a81548160ff021916908315150217905550610c4a610ca9565b73ffffffffffffffffffffffffffffffffffffffff168173ffffffffffffffffffffffffffffffffffffffff16837f2f8788117e7eff1d82e926ec794901d17c78024a50270940304540a733656f0d60405160405180910390a45b5050565b600033905090565b610cbb8282610875565b15610d8e57600080600084815260200190815260200160002060000160008373ffffffffffffffffffffffffffffffffffffffff1673ffffffffffffffffffffffffffffffffffffffff16815260200190815260200160002060006101000a81548160ff021916908315150217905550610d33610ca9565b73ffffffffffffffffffffffffffffffffffffffff168173ffffffffffffffffffffffffffffffffffffffff16837ff6391f5c32d9c69d2a47ea670b442974b53935d1edc7fd64eb21e047a839171b60405160405180910390a45b5050565b610d9c8282610875565b610e1357610da981610e17565b610db78360001c6020610e44565b604051602001610dc8929190611a63565b6040516020818303038152906040526040517f08c379a0000000000000000000000000000000000000000000000000000000008152600401610e0a919061196d565b60405180910390fd5b5050565b6060610e3d8273ffffffffffffffffffffffffffffffffffffffff16601460ff16610e44565b9050919050565b606060006002836002610e579190611acc565b610e619190611b0e565b67ffffffffffffffff811115610e7a57610e79611378565b5b6040519080825280601f01601f191660200182016040528015610eac5781602001600182028036833780820191505090505b5090507f300000000000000000000000000000000000000000000000000000000000000081600081518110610ee457610ee3611b42565b5b60200101907effffffffffffffffffffffffffffffffffffffffffffffffffffffffffffff1916908160001a9053507f780000000000000000000000000000000000000000000000000000000000000081600181518110610f4857610f47611b42565b5b60200101907effffffffffffffffffffffffffffffffffffffffffffffffffffffffffffff1916908160001a90535060006001846002610f889190611acc565b610f929190611b0e565b90505b6001811115611032577f3031323334353637383961626364656600000000000000000000000000000000600f861660108110610fd457610fd3611b42565b5b1a60f81b828281518110610feb57610fea611b42565b5b60200101907effffffffffffffffffffffffffffffffffffffffffffffffffffffffffffff1916908160001a905350600485901c94508061102b90611b71565b9050610f95565b5060008414611076576040517f08c379a000000000000000000000000000000000000000000000000000000000815260040161106d90611be6565b60405180910390fd5b8091505092915050565b6000604051905090565b600080fd5b600080fd5b60007fffffffff0000000000000000000000000000000000000000000000000000000082169050919050565b6110c981611094565b81146110d457600080fd5b50565b6000813590506110e6816110c0565b92915050565b6000602082840312156111025761110161108a565b5b6000611110848285016110d7565b91505092915050565b60008115159050919050565b61112e81611119565b82525050565b60006020820190506111496000830184611125565b92915050565b600073ffffffffffffffffffffffffffffffffffffffff82169050919050565b600061117a8261114f565b9050919050565b61118a8161116f565b811461119557600080fd5b50565b6000813590506111a781611181565b92915050565b6000602082840312156111c3576111c261108a565b5b60006111d184828501611198565b91505092915050565b600081519050919050565b600082825260208201905092915050565b60005b838110156112145780820151818401526020810190506111f9565b60008484015250505050565b6000601f19601f8301169050919050565b600061123c826111da565b61124681856111e5565b93506112568185602086016111f6565b61125f81611220565b840191505092915050565b600060408201905081810360008301526112848185611231565b905081810360208301526112988184611231565b90509392505050565b6000819050919050565b6112b4816112a1565b81146112bf57600080fd5b50565b6000813590506112d1816112ab565b92915050565b6000602082840312156112ed576112ec61108a565b5b60006112fb848285016112c2565b91505092915050565b61130d816112a1565b82525050565b60006020820190506113286000830184611304565b92915050565b600080604083850312156113455761134461108a565b5b6000611353858286016112c2565b925050602061136485828601611198565b9150509250929050565b600080fd5b600080fd5b7f4e487b7100000000000000000000000000000000000000000000000000000000600052604160045260246000fd5b6113b082611220565b810181811067ffffffffffffffff821117156113cf576113ce611378565b5b80604052505050565b60006113e2611080565b90506113ee82826113a7565b919050565b600067ffffffffffffffff82111561140e5761140d611378565b5b61141782611220565b9050602081019050919050565b82818337600083830152505050565b6000611446611441846113f3565b6113d8565b90508281526020810184848401111561146257611461611373565b5b61146d848285611424565b509392505050565b600082601f83011261148a5761148961136e565b5b813561149a848260208601611433565b91505092915050565b600080604083850312156114ba576114b961108a565b5b600083013567ffffffffffffffff8111156114d8576114d761108f565b5b6114e485828601611475565b925050602083013567ffffffffffffffff8111156115055761150461108f565b5b61151185828601611475565b9150509250929050565b7f4e487b7100000000000000000000000000000000000000000000000000000000600052602260045260246000fd5b6000600282049050600182168061156257607f821691505b6020821081036115755761157461151b565b5b50919050565b7f416363657373436f6e74726f6c3a2063616e206f6e6c792072656e6f756e636560008201527f20726f6c657320666f722073656c660000000000000000000000000000000000602082015250565b60006115d7602f836111e5565b91506115e28261157b565b604082019050919050565b60006020820190508181036000830152611606816115ca565b9050919050565b7f416c72656164792072656769737465726564206173206120737570706c696572600082015250565b60006116436020836111e5565b915061164e8261160d565b602082019050919050565b6000602082019050818103600083015261167281611636565b9050919050565b7f416c7265616479207265676973746572656420617320612076656e646f720000600082015250565b60006116af601e836111e5565b91506116ba82611679565b602082019050919050565b600060208201905081810360008301526116de816116a2565b9050919050565b60008190508160005260206000209050919050565b60006020601f8301049050919050565b600082821b905092915050565b6000600883026117477fffffffffffffffffffffffffffffffffffffffffffffffffffffffffffffffff8261170a565b611751868361170a565b95508019841693508086168417925050509392505050565b6000819050919050565b6000819050919050565b600061179861179361178e84611769565b611773565b611769565b9050919050565b6000819050919050565b6117b28361177d565b6117c66117be8261179f565b848454611717565b825550505050565b600090565b6117db6117ce565b6117e68184846117a9565b505050565b5b8181101561180a576117ff6000826117d3565b6001810190506117ec565b5050565b601f82111561184f57611820816116e5565b611829846116fa565b81016020851015611838578190505b61184c611844856116fa565b8301826117eb565b50505b505050565b600082821c905092915050565b600061187260001984600802611854565b1980831691505092915050565b600061188b8383611861565b9150826002028217905092915050565b6118a4826111da565b67ffffffffffffffff8111156118bd576118bc611378565b5b6118c7825461154a565b6118d282828561180e565b600060209050601f83116001811461190557600084156118f3578287015190505b6118fd858261187f565b865550611965565b601f198416611913866116e5565b60005b8281101561193b57848901518255600182019150602085019450602081019050611916565b868310156119585784890151611954601f891682611861565b8355505b6001600288020188555050505b505050505050565b600060208201905081810360008301526119878184611231565b905092915050565b600081905092915050565b7f416363657373436f6e74726f6c3a206163636f756e7420000000000000000000600082015250565b60006119d060178361198f565b91506119db8261199a565b601782019050919050565b60006119f1826111da565b6119fb818561198f565b9350611a0b8185602086016111f6565b80840191505092915050565b7f206973206d697373696e6720726f6c6520000000000000000000000000000000600082015250565b6000611a4d60118361198f565b9150611a5882611a17565b601182019050919050565b6000611a6e826119c3565b9150611a7a82856119e6565b9150611a8582611a40565b9150611a9182846119e6565b91508190509392505050565b7f4e487b7100000000000000000000000000000000000000000000000000000000600052601160045260246000fd5b6000611ad782611769565b9150611ae283611769565b9250828202611af081611769565b91508282048414831517611b0757611b06611a9d565b5b5092915050565b6000611b1982611769565b9150611b2483611769565b9250828201905080821115611b3c57611b3b611a9d565b5b92915050565b7f4e487b7100000000000000000000000000000000000000000000000000000000600052603260045260246000fd5b6000611b7c82611769565b915060008203611b8f57611b8e611a9d565b5b600182039050919050565b7f537472696e67733a20686578206c656e67746820696e73756666696369656e74600082015250565b6000611bd06020836111e5565b9150611bdb82611b9a565b602082019050919050565b60006020820190508181036000830152611bff81611bc3565b905091905056fea2646970667358221220e3686fcf28414a27dd864e639b774665fb9977f00bbc9bba93746efd525086e064736f6c63430008130033",
  "linkReferences": {},
  "deployedLinkReferences": {}
}